ODOO      WAMAS     00000120230501000000KRETK0051000130377              HOST                     STDMAN0001040         MyCompany                                                                                                                                                                      1839 Arbor Way                          California                              95380     Turlock                                                                         US  (623)-853-7197                                                        wood.corner26@example.com                                                                                                                                                          20230427000000          
ODOO      WAMAS     00000220230501000000KRETP0046000130377              HOST 0000200001151       0000020001151                00000DISPONIBLE                                                  000001536000BOUT                             N                                        
ODOO      WAMAS     00000320230501000000KRETP0046000130377              HOST 0000300001156       0000030001156                00000DISPONIBLE                                                  000005184000PET                              N                                        
ODOO      WAMAS     00000420230501000000KRETP0046000130377              HOST 0000400001160       0000040001160                00000DISPONIBLE                                                  000003840000BOUT                             N                                        
ODOO      WAMAS     00000520230501000000KRETP0046000130377              HOST 0000500001162       0000050001162                00000DISPONIBLE                                                  000003072000PET                              N                                        
ODOO      WAMAS     00000620230501000000KRETP0046000130377              HOST 0000600001176       0000060001176                00000DISPONIBLE                                                  000003024000PET                              N                                        