SYSLOG    WAMAS     00000120231220091116WEAK00050000130377              HOST                     STDMAN0001040                              SA                                                                                                                                                        Route de la Gare 1                      Case postale                            1525      Henniez                                                                             +41 848 677 677                    +41 26 668 68 68                   customerservice.ch@waters.nestle.com                                                    20230427000000                                                                             
SYSLOG    WAMAS     00002020231220091116WEAP00045000130377              HOST                     0000200001151                00000                                                NDISPONIBLE                                                  000001536000BOUT NORMAL 20230501000000                    202305010000007910063             NNLG                                                                                                  
SYSLOG    WAMAS     00003020231220091116WEAP00045000130377              HOST                     0000300001156                00000                                                NDISPONIBLE                                                  000005184000PET  NORMAL 20230501000000                    202305010000007910105             NNLG                                                                                                  
SYSLOG    WAMAS     00004020231220091116WEAP00045000130377              HOST                     0000400001160                00000                                                NDISPONIBLE                                                  000003840000BOUT NORMAL 20230501000000                    202305010000007910004             NNLG                                                                                                  
SYSLOG    WAMAS     00005020231220091116WEAP00045000130377              HOST                     0000500001162                00000                                                NDISPONIBLE                                                  000003072000PET  NORMAL 20230501000000                    2023050100000012156876            NNLG                                                                                                  
SYSLOG    WAMAS     00006020231220091116WEAP00045000130377              HOST                     0000600001176                00000                                                NDISPONIBLE                                                  000003024000PET  NORMAL 20230501000000                    202305010000007910044             NNLG                                                                                                  
