WAMAS     ODOO      00000120231220091116WEAKQ0051000130377              HOST 19700101010000                                                  19700101010000              20231220091116                                                                                           0001040         
WAMAS     ODOO      00000220231220091116WEAPQ0050000130377              000130377              HOST                     000020                    0001151                00000DISPONIBLE          000001536000000000000000     BOUT                                                                     N
WAMAS     ODOO      00000320231220091116WEAPQ0050000130377              000130377              HOST                     000030                    0001156                00000DISPONIBLE          000005184000000000000000     PET                                                                      N
WAMAS     ODOO      00000420231220091116WEAPQ0050000130377              000130377              HOST                     000040                    0001160                00000DISPONIBLE          000003840000000000000000     BOUT                                                                     N
WAMAS     ODOO      00000520231220091116WEAPQ0050000130377              000130377              HOST                     000050                    0001162                00000DISPONIBLE          000003072000000000000000     PET                                                                      N
WAMAS     ODOO      00000620231220091116WEAPQ0050000130377              000130377              HOST                     000060                    0001176                00000DISPONIBLE          000003024000000000000000     PET                                                                      N