ODOO      WAMAS     00000120230501020000WEAK00050000130377              HOST                     STDMAN0001040         MyCompany                                                                                                                                                                      1839 Arbor Way                          California                              95380     Turlock                                                                         US  (623)-853-7197                                                        wood.corner26@example.com                                                               20230427000000                                                                             
ODOO      WAMAS     00000220230501020000WEAP00045000130377              HOST 0000200001151       0000020001151                00000                                                NDISPONIBLE                                                  000001536000BOUT NORMAL 20230501020000                    2023-05-01    7910063             NNLG                                                                                                  
ODOO      WAMAS     00000320230501020000WEAP00045000130377              HOST 0000300001156       0000030001156                00000                                                NDISPONIBLE                                                  000005184000PET  NORMAL 20230501020000                    2023-05-01    7910105             NNLG                                                                                                  
ODOO      WAMAS     00000420230501020000WEAP00045000130377              HOST 0000400001160       0000040001160                00000                                                NDISPONIBLE                                                  000003840000BOUT NORMAL 20230501020000                    2023-05-01    7910004             NNLG                                                                                                  
ODOO      WAMAS     00000520230501020000WEAP00045000130377              HOST 0000500001162       0000050001162                00000                                                NDISPONIBLE                                                  000003072000PET  NORMAL 20230501020000                    2023-05-01    12156876            NNLG                                                                                                  
ODOO      WAMAS     00000620230501020000WEAP00045000130377              HOST 0000600001176       0000060001176                00000                                                NDISPONIBLE                                                  000003024000PET  NORMAL 20230501020000                    2023-05-01    7910044             NNLG                                                                                                  