WAMAS     ODOO      00000120230510115944KRETKQ0500001683399             HOST 1712149             0004026234      202305101026402023051011102920230510115447                                                                             
WAMAS     ODOO      00000220230510115944KRETPQ0500001683399             HOST 1712149             0000100001172                00000DISPONIBLE          000000108000000000000000     PET                      19700101                    
WAMAS     ODOO      00000320230510115944KRETPQ0500001683399             HOST 1712149             0000200001272                00000DISPONIBLE          000000036000000000000000     PET                      19700101                    
WAMAS     ODOO      00000420230510115944KRETPQ0500001683399             HOST 1712149             00003000016076               00000DISPONIBLE          000000048000000000000000     PET                      19700101                    
WAMAS     ODOO      00000520230510115944KRETPQ0500001683399             HOST 1712149             00004000022876               00000DISPONIBLE          000000072000000000000000     PET                      19700101                    
WAMAS     ODOO      00000620230510115944KRETPQ0500001683399             HOST 1712149             00005000025676               00000DISPONIBLE          000000060000000000000000     PET                      19700101                    
WAMAS     ODOO      00000720230510115944KRETKQ0500001683288             HOST 1711980             0004007720      202305100810092023051011562820230510115714                                                                             
WAMAS     ODOO      00000820230510115944KRETPQ0500001683288             HOST 1711980             0000100008060                00000DISPONIBLE          000000144000000000000000     BOUT                     19700101                    
