WAMAS     SYSTEM1   00000120230501065723WEAKQ0051000196241              HOST 20230501060217                                                  19700101010000202305010609112023050106433920230501060221                                                                             0001040         
WAMAS     SYSTEM1   00000220230501065723WEAPQ0050000196241              000123477              HOST                     00002045415               0001111                00000DISPONIBLE          000001536000000000000000     BOUT                     19700101                    12    eCAM  018090  N
WAMAS     SYSTEM1   00000320230501065723WEAPQ0050000196241              000123477              HOST                     00003045415               0001112                00000DISPONIBLE          000005184000000000000000     PET                      19700101                    12    eCAM  018090  N
WAMAS     SYSTEM1   00000420230501065723WEAPQ0050000196241              000123477              HOST                     00004045415               0001113                00000DISPONIBLE          000003840000000000000000     BOUT                     19700101                    12    eCAM  018090  N
WAMAS     SYSTEM1   00000520230501065723WEAPQ0050000196241              000123477              HOST                     00005045415               0001114                00000DISPONIBLE          000003072000000000000000     PET                      19700101                    12    eCAM  018090  N
WAMAS     SYSTEM1   00000620230501065723WEAPQ0050000196241              000123477              HOST                     00006045415               0001115                00000DISPONIBLE          000003024000000000000000     PET                      19700101                    12    eCAM  018090  N
