SYSTEM1   WAMAS     00000120231031100930WEAK00050000123477              HOST                     STDMAN0001040         New Company                                                                                                                                                                    1 1th Ave S                                                                     55406     Minneapolis                             Minnesota                               Unit+41 111 222 333                    +41 11 222 33 44                   customerservice@new.company.com                                                         20231028000000                                                                             
SYSTEM1   WAMAS     00002020231031100930WEAP00045000123477              HOST                     0000200001111                00000                    20231031                    NDISPONIBLE                                                  000001536000BOUT NORMAL 20231031000000                    202310310000007910063             NNLG                                                                                                  
SYSTEM1   WAMAS     00003020231031100930WEAP00045000123477              HOST                     0000300001112                00000                    20231031                    NDISPONIBLE                                                  000005184000PET  NORMAL 20231031000000                    202310310000007910105             NNLG                                                                                                  
SYSTEM1   WAMAS     00004020231031100930WEAP00045000123477              HOST                     0000400001113                00000                    20231031                    NDISPONIBLE                                                  000003840000BOUT NORMAL 20231031000000                    202310310000007910004             NNLG                                                                                                  
SYSTEM1   WAMAS     00005020231031100930WEAP00045000123477              HOST                     0000500001114                00000                    20231031                    NDISPONIBLE                                                  000003072000PET  NORMAL 20231031000000                    2023103100000012156876            NNLG                                                                                                  
SYSTEM1   WAMAS     00006020231031100930WEAP00045000123477              HOST                     0000600001115                00000                    20231031                    NDISPONIBLE                                                  000003024000PET  NORMAL 20231031000000                    202310310000007910044             NNLG                                                                                                  
